:020000040800F2
:100000006804002009010008A111000899110008E6
:100010009D11000875010008C911000800000000CA
:10002000000000000000000000000000A91100080E
:100030007901000800000000A5110008AD110008BA
:100040002301000823010008230100082301000800
:1000500023010008230100082301000823010008F0
:1000600023010008230100082301000823010008E0
:1000700023010008230100082301000823010008D0
:1000800023010008230100082301000823010008C0
:1000900023010008230100082301000823010008B0
:1000A00023010008230100082301000823010008A0
:1000B000B9110008230100082301000823010008EA
:1000C0002301000823010008230100082301000880
:1000D0002301000823010008230100082301000870
:1000E0002301000823010008230100082301000860
:1000F00023010008DFF80CD000F02AF80048004780
:10010000CD110008680400200648804706480047D3
:10011000FEE7FEE7FEE7FEE7FEE7FEE7FEE7FEE7B7
:10012000FEE7FEE7B5110008F5000008D2B201E0D5
:1001300000F8012B491EFBD270470022F6E710B5EC
:1001400013460A4604461946FFF7F0FF204610BD45
:10015000064C074D06E0E06840F0010394E8070014
:1001600098471034AC42F6D3FFF7C8FF9415000847
:10017000B4150008FEE7000070470000B0B5044663
:1001800000F0FAF8054640F20800C2F200000068EC
:10019000611C18BF044400BF00F0EEF8401BA042F1
:1001A000FAD3B0BD2DE9F04F82B041F20002C4F2A3
:1001B00002020B680527904208BF0427002B009716
:1001C00000F0C28000F13E4202F1FF724FEAB22419
:1001D00040F2004C009AC4F2010C042C38BF2246B5
:1001E00000250027012400920AE000BF0B680437B5
:1001F00033FA04F204F1010405F1020500F0A480D1
:10020000A4F10108012202FA08FA13EA0A09EDD062
:10021000D1F804B00BF00303A3F1010EBEF1010FFE
:1002200012D8D0F808E00322CE68AA402EEA0202D3
:10023000AE40324382604268CBF3001622EA0A02E3
:1002400006FA08F632434260032B1FD00322D0F88F
:100250000CE002FA05F68A682EEA0606AA40324346
:10026000022BC26012D16FF0030202EA580202446C
:1002700007F01C060F23D2F820E003FA06FA0B69F8
:100280002EEA0A0EB34043EA0E0313620268032308
:100290004E68AB409A4306F00303AB401A4316F492
:1002A000403F0260A2D043F62003C4F202031A6862
:1002B00007F00C0642F001021A601A680F2302F0E0
:1002C00001020192019A28F003024FF608486244A5
:1002D000CFF6FF7852F808E0B3402EEA030E009BF9
:1002E00003FA06F646EA0E0342F80830DCF800E0AE
:1002F0004B684EEA0906DA0358BF2EEA0906CCF825
:100300000060DCF804E09A034EEA090658BF2EEAC2
:100310000906CCF80460DCF808E0DA024EEA0906C7
:1003200058BF2EEA090640F20C4ECCF80860C4F221
:10033000010EDEF800209B0242EA090658BF22EABD
:100340000906CEF8006051E702B0BDE8F08F00006A
:100350000069084018BF012070470000426902EAA6
:100360000103914341EA034181617047002A08BFBC
:10037000090481617047000040F26400C2F200008D
:100380000068704740F2080040F26401C2F20000C9
:10039000C2F2000100680A6810440860704700005B
:1003A00080B5032000F09CF8002000F009F8002838
:1003B0001CBF012080BD00F02DF8002080BD000092
:1003C000B0B540F20801C2F20001096801B3044669
:1003D00040F20000C2F200004FF47A720068B2FBF3
:1003E000F1F1B0FBF1F000F033FC0F2C4FF0010500
:1003F0000CD858B94FF0FF3021460022002500F0FC
:1004000043F840F20C00C2F2000004602846B0BD80
:100410000120B0BD80B584B043F62400C4F20200D0
:10042000016841F000410160016801F00041039161
:10043000039950F8041C41F0010140F8041C50F8E5
:10044000041C01F0010102910299016841F0805100
:100450000160006800F0805001900198072000F0D2
:100460003FF804B080BD0000002848BF704700F08E
:100470001F01012202FA01F14EF200124009CEF2F0
:10048000000242F82010704710B54EF60C5CCEF218
:10049000000CDCF80030C3F3022E8EF00704042CAD
:1004A00028BF0424BEF103034FF0FF3E0EFA04F40C
:1004B00038BF0023A14399400EFA03F39A4300F09A
:1004C0000F03043B1143634409010C3300F1604204
:1004D000B0F1FF3FC8BF02F56443197010BD0000C2
:1004E0004EF60C51CEF200010A684FF6FF031A4097
:1004F00060F30A2242F0806040F0FD7008607047AF
:100500002DE9F041002800F0BB8043F60807C4F253
:1005100002070446D7F8F8030D4600F001008842B0
:1005200015D2012D05D1D7F8F80340F00400C7F823
:10053000F803D7F8F80320F001002843C7F8F803C0
:10054000D7F8F80300F00100A84240F09980206835
:10055000810705D53968A26821F0F001114339609F
:10056000C00736D1D7F8F80300F00100A8420AD935
:10057000D7F8F80320F00100C7F8F803D7F8F8031C
:10058000C00740F07D802068410705D53968E268E2
:1005900021F4E06111433960000706D5386821690C
:1005A00020F4605040EAC10038603968C1F381022C
:1005B00042F20040C0F2F400DFE802F002361A1FF7
:1005C00057F8040C4FF48031C0F3423001FA00F0C8
:1005D0002AE0606801283FD0032845D002284BD18B
:1005E00057F8081C89035CBF0120BDE8F0814AE090
:1005F00041F20020C0F27A0016E041F28853C1F3C4
:100600008342C0F600039A5C3B68C1F38151DB036F
:1006100041F20023C0F27A0301F1010158BF034601
:1006200003FB02F0B0FBF1F0396841F27852C1F3FC
:100630000311C0F60002515C40F2000220FA01F101
:1006400040F20C00C2F200000068C2F20002116029
:10065000FFF7B6FEBDE8F08157F8081C89075CBFBC
:100660000120BDE8F0810EE057F8081C89015CBF4D
:100670000120BDE8F08106E057F8081C890502D486
:100680000120BDE8F081396821F00301084338609A
:10069000FFF772FE61680646032941F2883828D0C8
:1006A000022934D001290DD1386800F00C0004284B
:1006B0003FF458AFFFF760FE801B40454FF003004A
:1006C000F2D9C7E7386810F00C0F3FF44BAFFFF7D3
:1006D00053FE801B40454FF0030088BFBDE8F0810A
:1006E000F0E700BFFFF748FE801B40454FF00300D6
:1006F000B0D8386800F00C000C28F3D132E700BF06
:10070000FFF73AFE801B40454FF00300A2D838683F
:1007100000F00C000828F3D124E700002DE9F04395
:1007200083B0002800F0908243F600060446C4F22D
:100730000206B068B168227800F00C09D00701F415
:10074000803710D0B9F1080F06D0B9F10C0F40F086
:10075000E280002F00F0DF803068800303D56068FE
:10076000002800F07182207880072ED5B9F1040F9F
:100770001DD0B9F10C0F08BF002F18D0E068002879
:1007800000F045810020C4F2472001210160FFF7FD
:10079000F3FD05463068800710D4FFF7EDFD401BE0
:1007A00002284FF00300F5D903B0BDE8F0833068AC
:1007B000800703D5E068012840F04682706821690F
:1007C00020F4F85040EA012070602078C00625D45B
:1007D000207800073CD42078400751D4656ACDB119
:1007E000B9F10C0F40F0D080012D00F02D82B068DF
:1007F000A16A00F480328A4240F02682E16A00F465
:1008000070128A4240F02082216B00F4400088423E
:1008100040F01A82002003B0BDE8F083B9F1000F68
:1008200065D0A069002800F09B800020C4F247201A
:1008300001210162FFF7A0FD054600BF3068800579
:1008400000F1C480FFF798FD401B0228F6D913E0A1
:10085000606900286FD00020C4F247200121C0F851
:100860008016FFF789FD0546706B8007B3D4FFF74C
:1008700083FD401B0228F7D9032003B0BDE8F083B5
:10088000706A10F0805808D1706A40F08050706231
:10089000706A00F080500090009847F20007C4F2A0
:1008A00000073868C00512D4386840F4807038609A
:1008B000FFF762FD054600BF3868C00507D4FFF7A3
:1008C0005BFD401B64284FF00300F5D96CE7A56879
:1008D0002DB1052D00F0B080012D00F0B180706BBE
:1008E00020F480707063706B20F48060ABE030683F
:1008F000800503D5A069002800F0A681206A7168F0
:1009000001F4604188426FD9B16811F0F00F00F036
:10091000E980002139E165682DB1052D00F0BC802A
:10092000012D00F0BD80306820F4803030603068E8
:1009300020F48020B7E00020C4F247200021C0F856
:100940008016FFF719FD0546706B80077FF543AFF2
:10095000FFF712FD401B02284FF00300F4D923E7F4
:100960000020C4F2472000210162FFF705FD054683
:10097000306880057FF52CAFFFF7FEFC401B022896
:100980004FF00300F4D90FE70027C4F247270020F7
:100990003866FFF7F1FC022D05460BD13068800167
:1009A00040F1B680FFF7E8FC401B02284FF003003F
:1009B000F4D9F9E6306880017FF52CAFFFF7DCFC55
:1009C000401B02284FF00300F4D9EDE67068D4E92B
:1009D000072120F4604008437060706820F07F4079
:1009E00040EA02607060F3E6716821F460410143FF
:1009F00071607168E26921F07F4141EA02617160D2
:100A0000B16811F0F00F00F09F800021E9E00020B4
:100A1000C4F2472000210160FFF7AEFC054600BF8D
:100A2000306880077FF5D1AEFFF7A6FC401B022897
:100A30004FF00300F4D9B7E6706B40F48060706348
:100A4000706B40F480707063FFF796FC002D0546D4
:100A500041F2883714D000BF706B800513D4FFF7C4
:100A60008BFC401BB8424FF00300F5D99CE600BF59
:100A7000FFF782FC401BB8424FF003003FF694AEF4
:100A8000706B8005F4D4B8F1000F7FF4A7AE706AE4
:100A900020F080507062A1E6306840F48020306021
:100AA000306840F480303060FFF766FC002D05466A
:100AB00014D000BF306880033FF555AEFFF75CFCF3
:100AC000401B64284FF00300F4D96DE6FFF754FC97
:100AD000401B64284FF003003FF666AE3068800389
:100AE000F4D440E6716AC90047F20001C4F2000183
:100AF00040D4726A42F080527262726A02F080528E
:100B00000192019A0968726A22F08052726232E0A0
:100B1000B06804F128030ECB20F47D000843104395
:100B20001843B06001203866FFF726FC044600BF7A
:100B3000306880013FF56EAEFFF71EFC001B0228F7
:100B40004FF00300F4D92FE6716AC90047F20001A3
:100B5000C4F200013AD4726A42F080527262726A40
:100B600002F080520292029A0968726A22F0805260
:100B700072622CE009684FF4C05222EA010180F44D
:100B800040421143B1FA81F1490929B1D6F8002454
:100B900042F00402C6F80024D6F8002422F0010234
:100BA0000A44C6F80024D6F8002402F001028A4262
:100BB0004AD1716821F46041014371607168E26952
:100BC00021F07F4141EA026171601EE009684FF443
:100BD000C05222EA010180F440421143B1FA81F18E
:100BE000490929B1D6F8002442F00402C6F80024CD
:100BF000D6F8002422F001020A44C6F80024D6F8F0
:100C0000002402F001028A421ED1B16841F27852FA
:100C1000C1F30311C0F60002400B515C4FF4803267
:100C200002FA00F020FA01F140F20C00C2F20000DA
:100C300040F200020068C2F200021160FFF7C0FB40
:100C400000287FF4B1ADC3E5012003B0BDE8F08317
:100C5000411E0020B0EB116F1CBF012070474EF207
:100C60001002CEF2000251604EF62351CEF2000186
:100C7000F0230B70072190601160704710B590F859
:100C80003820012A4FF0020231D0012380F8383099
:100C900080F839200268D2F804E0D2F808C00C6865
:100CA0002EF07003234340F2FF74C4F20004A2420A
:100CB000536005DCB2F1804F0ED040F2004307E0F4
:100CC00040F60003C4F201039A4205D040F6000347
:100CD000C4F200039A4204D149682CF080031943FE
:100CE00091600121002280F8391080F838201046E8
:100CF00010BD0000002804BF0120704710B5044655
:100D000090F8390028B9002084F83800204600F017
:100D10005FF8022084F8390020680168B0F1804F44
:100D20000BD040F60002C4F20002904205D040F21F
:100D30000042C4F20002904203D1A26821F0700187
:100D4000114340F2FF72C4F2010290420FDCB0F195
:100D5000804F1ED040F20042C4F20002904218D0F0
:100D600040F60002C4F20002904212D015E040F6B4
:100D70000002C4F2010290420BD041F20002C4F220
:100D80000102904205D040F60042C4F201029042B6
:100D900003D1226921F440711143636921F080017C
:100DA000D4F804C0E268194301600121C262C0F8AE
:100DB00028C04161002084F83E1084F83A1084F87D
:100DC0003B1084F83C1084F83D1084F8391010BDB5
:100DD00080B582B00068B0F1804F01D002B080BD14
:100DE00043F62400C4F202000168002241F0010130
:100DF00001600068002100F00100019001981C20B2
:100E0000FFF742FB1C20FFF72FFB02B080BD000064
:100E100090F8391001291CBF01207047022180F889
:100E20003910006840F2FF72C168C4F200029042BB
:100E300041F00101C16005DCB0F1804F0ED040F2FD
:100E4000004107E040F60001C4F20101884205D0EC
:100E500040F60001C4F20001884206D1816801F029
:100E60000701062904BF00207047016841F0010115
:100E7000016000207047000080B590F83820012AFA
:100E80004FF0020200F0C080012380F8383080F873
:100E90003920D0F800C04FF67772DCF8083023EA2A
:100EA0000202CCF808200B683F2B1CDD5F2B20DDF5
:100EB000602B4FD0B3F5005F6CD0702B40F09E805C
:100EC000D1E901E3C968DCF8082043EA0E0322F403
:100ED0007F4243EA01211143CCF80810DCF80810E6
:100EE00041F0770188E01F2B28DC5BB3102B29D061
:100EF00084E0402B61D0502B40F08080D1F804E09A
:100F0000C968DCF82030DCF8202022F00102CCF89F
:100F10002020DCF8182022F0F00242EA011123F030
:100F20000A0242EA0E02CCF81810CCF82020DCF8B5
:100F3000081041F0570121F020015DE0202B01D085
:100F4000302B5BD1DCF8081021F07001194341F01F
:100F5000070151E0D1F804E0C968DCF8203023F043
:100F60001003CCF82030DCF81830DCF8202023F413
:100F7000704322F0A00243EA013142EA0E12CCF89B
:100F80001810CCF82020DCF8081041F0670121F09F
:100F9000100131E0D1E901E3C968DCF8082043EA37
:100FA0000E0322F47F4243EA01211143CCF80810DA
:100FB000DCF8081041F480411EE0D1F804E0C96873
:100FC000DCF82030DCF8202022F00102CCF82020D0
:100FD000DCF8182022F0F00242EA011123F00A02A4
:100FE00042EA0E02CCF81810CCF82020DCF80810E9
:100FF00041F0470121F03001CCF808100121002216
:1010000080F8391080F83820104680BD7047000005
:1010100010B5044600680169890744BFC1685FEAEA
:10102000817128D420680169490744BFC1685FEA1B
:1010300041712CD420680169090744BFC1685FEA87
:10104000017131D420680169C90644BFC1685FEAF3
:10105000C16135D420680169C9071CBFC1685FEA56
:10106000C1713AD120680169490644BFC1685FEA8D
:10107000416139D410BD6FF0020101610121217677
:101080008069800737D02046FFF7C0FF39E06FF056
:101090000401016102212176806910F4407F33D080
:1010A0002046FFF7B3FF35E06FF00801016104212E
:1010B0002176C069800730D02046FFF7A7FF32E0D5
:1010C0006FF01001016108212176C06910F4407FA2
:1010D0002CD02046FFF79AFF2EE06FF0010101614E
:1010E000204600F031F8BDE76FF040010161204675
:1010F00000F050F810BD204600F022F8204600F025
:1011000021F8002020768DE7204600F019F82046CF
:1011100000F018F8002020768CE7204600F010F848
:10112000204600F00FF8002020768BE7204600F0E4
:1011300007F8204600F006F8002020768AE7000035
:10114000704700007047000080B540F2540040F244
:101150005802C2F20000C2F2000201681268914215
:1011600015DB002101600020C4F202004FF4006191
:10117000FFF7F4F840F25C00C2F2000000780028AB
:1011800008BF80BD40F26000C2F20000016801317A
:10119000016080BD70470000FEE70000FEE7000030
:1011A000FEE70000704700007047000080B5FFF7C1
:1011B000E9F880BD7047000080B540F21400C2F22B
:1011C0000000FFF725FF80BDFEE7000092B000247D
:1011D000C4F20204FFF7E4F805AD28463421FEF717
:1011E000ACFF002647F200000496CDE90266CDE987
:1011F0000066CFF6FE702158012262F3CC21215007
:1012000002200590CDE90E064FF4802010904FF497
:10121000800010211190284608920991FFF77EFA6C
:1012200018B1EFF3108072B6FEE74FF00F0B4FF0DE
:10123000030968460121CDF800B0CDE90196CDE95A
:1012400003664FF0010AFFF75BF920B1EFF310805E
:1012500072B600BFFEE7002643F61C000996CDE9F2
:101260000766CDE90566C4F20200016804F5006571
:1012700041F0040101600168002201F004010091C5
:10128000009901684FF4005741F0010101600168C5
:1012900001F0010100910099016841F00201016033
:1012A00000684FF4005100F00200009000982846BA
:1012B000FFF75CF820464FF470610022FFF756F804
:1012C00004F580684046C0210022FFF74FF8CDE9C1
:1012D000057A05AF28463946CDE90766FEF762FF75
:1012E00028463946CDE905B6CDF81CA0FEF75AFFD1
:1012F0000220CDE90506079020463946FEF752FF49
:101300004FF4E060CDE9050A20463946CDE907668D
:10131000FEF748FF4FF40060CDE9050A2046394644
:10132000CDE90769FEF73EFFC020CDE9050A40463A
:101330003946CDE90766FEF735FF40F21400C2F2E8
:1013400000004FF080411D23CDE90766CDE9056619
:10135000CDE90066082280E84600C0E90336466110
:10136000FFF7C8FC18B1EFF3108072B6FEE74FF438
:101370008050059040F21400C2F2000005A9FFF76A
:101380007BFD20B1EFF3108072B600BFFEE740F2A4
:1013900014004FF00008C2F200006946CDE9008851
:1013A000FFF76CFC18B1EFF3108072B6FEE74FF454
:1013B0007A60FEF7E3FE40F21400C2F20000FFF78D
:1013C00027FD40F2100740F25C0940F2600A40F24B
:1013D000040BC2F200070226C2F20009C2F2000AA0
:1013E000C2F2000B38780428FCD8DFE800F00305CF
:1013F000182B7A003E70F5E720460221FEF7A8FF81
:10140000002800F08E80DAF80000DBF80010884237
:1014100080F0988020464FF48061012209E0284640
:101420000421FEF795FF012872D120464FF4806118
:101430000022FEF79BFF20464FF400710022FEF7CA
:1014400095FFCFE720460221FEF782FF68B94FF4EF
:101450007A70FEF793FE20460221FEF779FF20B94D
:101460003E7089F80080CAF8008028460821FEF7FF
:101470006FFF70B920464FF400710022FEF776FF2F
:101480006420FEF77BFE20464FF400710122FEF738
:101490006DFF28460221FEF75BFF0028A2D12846F7
:1014A0000421FEF755FF01289CD120464FF48061AE
:1014B0000022FEF75BFF20464FF400710022FEF78A
:1014C00055FF6420FEF75AFE20464FF400710122BA
:1014D000FEF74CFF20464FF480610122FEF746FFE5
:1014E00080E720460221FEF733FF01287FF47AAF20
:1014F0004FF4FA70FEF742FE20460221FEF728FF65
:1015000001287FF46FAF0120387089F8000069E787
:1015100020464FF400710122FEF728FF04203870A6
:1015200060E74FF47A70FEF729FE20460221FEF7AD
:101530000FFF00287FF456AF3E7089F80080CAF88C
:1015400000804FE720464FF400710122FEF70EFFA6
:101550000320387089F8008044E702E008C8121FB1
:1015600008C1002AFAD170477047002001E001C18C
:10157000121F002AFBD1704700000000000000008D
:101580000102030406070809030406080C101820CA
:1015900030000000B8150008000000201000000016
:1015A0005A150008C8150008100000205804000053
:1015B0006A1500080000000068FF1F00809FD5002A
:0815C000010000001000000012
:04000005080000F5FA
:00000001FF
